{
  "contractName": "Lab01Token",
  "abi": [
    {
      "inputs": [],
      "stateMutability": "nonpayable",
      "type": "constructor"
    },
    {
      "anonymous": false,
      "inputs": [
        {
          "indexed": false,
          "internalType": "uint256",
          "name": "id",
          "type": "uint256"
        },
        {
          "indexed": false,
          "internalType": "string",
          "name": "name",
          "type": "string"
        },
        {
          "indexed": false,
          "internalType": "uint256",
          "name": "tokenType",
          "type": "uint256"
        },
        {
          "indexed": false,
          "internalType": "address",
          "name": "creator",
          "type": "address"
        }
      ],
      "name": "AddNewToken",
      "type": "event"
    },
    {
      "anonymous": false,
      "inputs": [
        {
          "indexed": true,
          "internalType": "address",
          "name": "account",
          "type": "address"
        },
        {
          "indexed": true,
          "internalType": "address",
          "name": "operator",
          "type": "address"
        },
        {
          "indexed": false,
          "internalType": "bool",
          "name": "approved",
          "type": "bool"
        }
      ],
      "name": "ApprovalForAll",
      "type": "event"
    },
    {
      "anonymous": false,
      "inputs": [
        {
          "indexed": false,
          "internalType": "address",
          "name": "account",
          "type": "address"
        }
      ],
      "name": "Paused",
      "type": "event"
    },
    {
      "anonymous": false,
      "inputs": [
        {
          "indexed": true,
          "internalType": "bytes32",
          "name": "role",
          "type": "bytes32"
        },
        {
          "indexed": true,
          "internalType": "bytes32",
          "name": "previousAdminRole",
          "type": "bytes32"
        },
        {
          "indexed": true,
          "internalType": "bytes32",
          "name": "newAdminRole",
          "type": "bytes32"
        }
      ],
      "name": "RoleAdminChanged",
      "type": "event"
    },
    {
      "anonymous": false,
      "inputs": [
        {
          "indexed": true,
          "internalType": "bytes32",
          "name": "role",
          "type": "bytes32"
        },
        {
          "indexed": true,
          "internalType": "address",
          "name": "account",
          "type": "address"
        },
        {
          "indexed": true,
          "internalType": "address",
          "name": "sender",
          "type": "address"
        }
      ],
      "name": "RoleGranted",
      "type": "event"
    },
    {
      "anonymous": false,
      "inputs": [
        {
          "indexed": true,
          "internalType": "bytes32",
          "name": "role",
          "type": "bytes32"
        },
        {
          "indexed": true,
          "internalType": "address",
          "name": "account",
          "type": "address"
        },
        {
          "indexed": true,
          "internalType": "address",
          "name": "sender",
          "type": "address"
        }
      ],
      "name": "RoleRevoked",
      "type": "event"
    },
    {
      "anonymous": false,
      "inputs": [
        {
          "indexed": true,
          "internalType": "address",
          "name": "operator",
          "type": "address"
        },
        {
          "indexed": true,
          "internalType": "address",
          "name": "from",
          "type": "address"
        },
        {
          "indexed": true,
          "internalType": "address",
          "name": "to",
          "type": "address"
        },
        {
          "indexed": false,
          "internalType": "uint256[]",
          "name": "ids",
          "type": "uint256[]"
        },
        {
          "indexed": false,
          "internalType": "uint256[]",
          "name": "values",
          "type": "uint256[]"
        }
      ],
      "name": "TransferBatch",
      "type": "event"
    },
    {
      "anonymous": false,
      "inputs": [
        {
          "indexed": true,
          "internalType": "address",
          "name": "operator",
          "type": "address"
        },
        {
          "indexed": true,
          "internalType": "address",
          "name": "from",
          "type": "address"
        },
        {
          "indexed": true,
          "internalType": "address",
          "name": "to",
          "type": "address"
        },
        {
          "indexed": false,
          "internalType": "uint256",
          "name": "id",
          "type": "uint256"
        },
        {
          "indexed": false,
          "internalType": "uint256",
          "name": "value",
          "type": "uint256"
        }
      ],
      "name": "TransferSingle",
      "type": "event"
    },
    {
      "anonymous": false,
      "inputs": [
        {
          "indexed": false,
          "internalType": "string",
          "name": "value",
          "type": "string"
        },
        {
          "indexed": true,
          "internalType": "uint256",
          "name": "id",
          "type": "uint256"
        }
      ],
      "name": "URI",
      "type": "event"
    },
    {
      "anonymous": false,
      "inputs": [
        {
          "indexed": false,
          "internalType": "address",
          "name": "account",
          "type": "address"
        }
      ],
      "name": "Unpaused",
      "type": "event"
    },
    {
      "inputs": [],
      "name": "DEFAULT_ADMIN_ROLE",
      "outputs": [
        {
          "internalType": "bytes32",
          "name": "",
          "type": "bytes32"
        }
      ],
      "stateMutability": "view",
      "type": "function",
      "constant": true
    },
    {
      "inputs": [],
      "name": "MINTER_ROLE",
      "outputs": [
        {
          "internalType": "bytes32",
          "name": "",
          "type": "bytes32"
        }
      ],
      "stateMutability": "view",
      "type": "function",
      "constant": true
    },
    {
      "inputs": [],
      "name": "PAUSER_ROLE",
      "outputs": [
        {
          "internalType": "bytes32",
          "name": "",
          "type": "bytes32"
        }
      ],
      "stateMutability": "view",
      "type": "function",
      "constant": true
    },
    {
      "inputs": [],
      "name": "URI_SETTER_ROLE",
      "outputs": [
        {
          "internalType": "bytes32",
          "name": "",
          "type": "bytes32"
        }
      ],
      "stateMutability": "view",
      "type": "function",
      "constant": true
    },
    {
      "inputs": [
        {
          "internalType": "address",
          "name": "account",
          "type": "address"
        },
        {
          "internalType": "uint256",
          "name": "id",
          "type": "uint256"
        }
      ],
      "name": "balanceOf",
      "outputs": [
        {
          "internalType": "uint256",
          "name": "",
          "type": "uint256"
        }
      ],
      "stateMutability": "view",
      "type": "function",
      "constant": true
    },
    {
      "inputs": [
        {
          "internalType": "address[]",
          "name": "accounts",
          "type": "address[]"
        },
        {
          "internalType": "uint256[]",
          "name": "ids",
          "type": "uint256[]"
        }
      ],
      "name": "balanceOfBatch",
      "outputs": [
        {
          "internalType": "uint256[]",
          "name": "",
          "type": "uint256[]"
        }
      ],
      "stateMutability": "view",
      "type": "function",
      "constant": true
    },
    {
      "inputs": [
        {
          "internalType": "address",
          "name": "account",
          "type": "address"
        },
        {
          "internalType": "uint256",
          "name": "id",
          "type": "uint256"
        },
        {
          "internalType": "uint256",
          "name": "value",
          "type": "uint256"
        }
      ],
      "name": "burn",
      "outputs": [],
      "stateMutability": "nonpayable",
      "type": "function"
    },
    {
      "inputs": [
        {
          "internalType": "address",
          "name": "account",
          "type": "address"
        },
        {
          "internalType": "uint256[]",
          "name": "ids",
          "type": "uint256[]"
        },
        {
          "internalType": "uint256[]",
          "name": "values",
          "type": "uint256[]"
        }
      ],
      "name": "burnBatch",
      "outputs": [],
      "stateMutability": "nonpayable",
      "type": "function"
    },
    {
      "inputs": [
        {
          "internalType": "uint256",
          "name": "id",
          "type": "uint256"
        }
      ],
      "name": "exists",
      "outputs": [
        {
          "internalType": "bool",
          "name": "",
          "type": "bool"
        }
      ],
      "stateMutability": "view",
      "type": "function",
      "constant": true
    },
    {
      "inputs": [
        {
          "internalType": "bytes32",
          "name": "role",
          "type": "bytes32"
        }
      ],
      "name": "getRoleAdmin",
      "outputs": [
        {
          "internalType": "bytes32",
          "name": "",
          "type": "bytes32"
        }
      ],
      "stateMutability": "view",
      "type": "function",
      "constant": true
    },
    {
      "inputs": [
        {
          "internalType": "bytes32",
          "name": "role",
          "type": "bytes32"
        },
        {
          "internalType": "address",
          "name": "account",
          "type": "address"
        }
      ],
      "name": "grantRole",
      "outputs": [],
      "stateMutability": "nonpayable",
      "type": "function"
    },
    {
      "inputs": [
        {
          "internalType": "bytes32",
          "name": "role",
          "type": "bytes32"
        },
        {
          "internalType": "address",
          "name": "account",
          "type": "address"
        }
      ],
      "name": "hasRole",
      "outputs": [
        {
          "internalType": "bool",
          "name": "",
          "type": "bool"
        }
      ],
      "stateMutability": "view",
      "type": "function",
      "constant": true
    },
    {
      "inputs": [
        {
          "internalType": "address",
          "name": "account",
          "type": "address"
        },
        {
          "internalType": "address",
          "name": "operator",
          "type": "address"
        }
      ],
      "name": "isApprovedForAll",
      "outputs": [
        {
          "internalType": "bool",
          "name": "",
          "type": "bool"
        }
      ],
      "stateMutability": "view",
      "type": "function",
      "constant": true
    },
    {
      "inputs": [],
      "name": "paused",
      "outputs": [
        {
          "internalType": "bool",
          "name": "",
          "type": "bool"
        }
      ],
      "stateMutability": "view",
      "type": "function",
      "constant": true
    },
    {
      "inputs": [
        {
          "internalType": "bytes32",
          "name": "role",
          "type": "bytes32"
        },
        {
          "internalType": "address",
          "name": "account",
          "type": "address"
        }
      ],
      "name": "renounceRole",
      "outputs": [],
      "stateMutability": "nonpayable",
      "type": "function"
    },
    {
      "inputs": [
        {
          "internalType": "bytes32",
          "name": "role",
          "type": "bytes32"
        },
        {
          "internalType": "address",
          "name": "account",
          "type": "address"
        }
      ],
      "name": "revokeRole",
      "outputs": [],
      "stateMutability": "nonpayable",
      "type": "function"
    },
    {
      "inputs": [
        {
          "internalType": "address",
          "name": "from",
          "type": "address"
        },
        {
          "internalType": "address",
          "name": "to",
          "type": "address"
        },
        {
          "internalType": "uint256[]",
          "name": "ids",
          "type": "uint256[]"
        },
        {
          "internalType": "uint256[]",
          "name": "amounts",
          "type": "uint256[]"
        },
        {
          "internalType": "bytes",
          "name": "data",
          "type": "bytes"
        }
      ],
      "name": "safeBatchTransferFrom",
      "outputs": [],
      "stateMutability": "nonpayable",
      "type": "function"
    },
    {
      "inputs": [
        {
          "internalType": "address",
          "name": "from",
          "type": "address"
        },
        {
          "internalType": "address",
          "name": "to",
          "type": "address"
        },
        {
          "internalType": "uint256",
          "name": "id",
          "type": "uint256"
        },
        {
          "internalType": "uint256",
          "name": "amount",
          "type": "uint256"
        },
        {
          "internalType": "bytes",
          "name": "data",
          "type": "bytes"
        }
      ],
      "name": "safeTransferFrom",
      "outputs": [],
      "stateMutability": "nonpayable",
      "type": "function"
    },
    {
      "inputs": [
        {
          "internalType": "address",
          "name": "operator",
          "type": "address"
        },
        {
          "internalType": "bool",
          "name": "approved",
          "type": "bool"
        }
      ],
      "name": "setApprovalForAll",
      "outputs": [],
      "stateMutability": "nonpayable",
      "type": "function"
    },
    {
      "inputs": [
        {
          "internalType": "uint256",
          "name": "",
          "type": "uint256"
        }
      ],
      "name": "tokens",
      "outputs": [
        {
          "internalType": "uint256",
          "name": "id",
          "type": "uint256"
        },
        {
          "internalType": "string",
          "name": "name",
          "type": "string"
        },
        {
          "internalType": "enum Lab01Token.TokenType",
          "name": "tokenType",
          "type": "uint8"
        },
        {
          "internalType": "bool",
          "name": "active",
          "type": "bool"
        }
      ],
      "stateMutability": "view",
      "type": "function",
      "constant": true
    },
    {
      "inputs": [
        {
          "internalType": "uint256",
          "name": "id",
          "type": "uint256"
        }
      ],
      "name": "totalSupply",
      "outputs": [
        {
          "internalType": "uint256",
          "name": "",
          "type": "uint256"
        }
      ],
      "stateMutability": "view",
      "type": "function",
      "constant": true
    },
    {
      "inputs": [],
      "name": "totalToken",
      "outputs": [
        {
          "internalType": "uint256",
          "name": "",
          "type": "uint256"
        }
      ],
      "stateMutability": "view",
      "type": "function",
      "constant": true
    },
    {
      "inputs": [
        {
          "internalType": "uint256",
          "name": "",
          "type": "uint256"
        }
      ],
      "name": "uri",
      "outputs": [
        {
          "internalType": "string",
          "name": "",
          "type": "string"
        }
      ],
      "stateMutability": "view",
      "type": "function",
      "constant": true
    },
    {
      "inputs": [
        {
          "internalType": "string",
          "name": "_name",
          "type": "string"
        },
        {
          "internalType": "uint256",
          "name": "_tokenType",
          "type": "uint256"
        }
      ],
      "name": "addNewToken",
      "outputs": [],
      "stateMutability": "nonpayable",
      "type": "function"
    },
    {
      "inputs": [
        {
          "internalType": "string",
          "name": "newuri",
          "type": "string"
        }
      ],
      "name": "setURI",
      "outputs": [],
      "stateMutability": "nonpayable",
      "type": "function"
    },
    {
      "inputs": [],
      "name": "pause",
      "outputs": [],
      "stateMutability": "nonpayable",
      "type": "function"
    },
    {
      "inputs": [],
      "name": "unpause",
      "outputs": [],
      "stateMutability": "nonpayable",
      "type": "function"
    },
    {
      "inputs": [
        {
          "internalType": "address",
          "name": "account",
          "type": "address"
        },
        {
          "internalType": "uint256",
          "name": "id",
          "type": "uint256"
        },
        {
          "internalType": "uint256",
          "name": "amount",
          "type": "uint256"
        },
        {
          "internalType": "bytes",
          "name": "data",
          "type": "bytes"
        }
      ],
      "name": "mint",
      "outputs": [],
      "stateMutability": "nonpayable",
      "type": "function"
    },
    {
      "inputs": [
        {
          "internalType": "address",
          "name": "to",
          "type": "address"
        },
        {
          "internalType": "uint256[]",
          "name": "ids",
          "type": "uint256[]"
        },
        {
          "internalType": "uint256[]",
          "name": "amounts",
          "type": "uint256[]"
        },
        {
          "internalType": "bytes",
          "name": "data",
          "type": "bytes"
        }
      ],
      "name": "mintBatch",
      "outputs": [],
      "stateMutability": "nonpayable",
      "type": "function"
    },
    {
      "inputs": [
        {
          "internalType": "bytes4",
          "name": "interfaceId",
          "type": "bytes4"
        }
      ],
      "name": "supportsInterface",
      "outputs": [
        {
          "internalType": "bool",
          "name": "",
          "type": "bool"
        }
      ],
      "stateMutability": "view",
      "type": "function",
      "constant": true
    },
    {
      "inputs": [],
      "name": "getTokens",
      "outputs": [
        {
          "components": [
            {
              "internalType": "uint256",
              "name": "id",
              "type": "uint256"
            },
            {
              "internalType": "string",
              "name": "name",
              "type": "string"
            },
            {
              "internalType": "enum Lab01Token.TokenType",
              "name": "tokenType",
              "type": "uint8"
            },
            {
              "internalType": "bool",
              "name": "active",
              "type": "bool"
            }
          ],
          "internalType": "struct Lab01Token.Token[]",
          "name": "",
          "type": "tuple[]"
        }
      ],
      "stateMutability": "view",
      "type": "function",
      "constant": true
    },
    {
      "inputs": [],
      "name": "getTotalToken",
      "outputs": [
        {
          "internalType": "uint256",
          "name": "",
          "type": "uint256"
        }
      ],
      "stateMutability": "view",
      "type": "function",
      "constant": true
    }
  ],
  "bytecode": "0x60806040523480156200001157600080fd5b506040805160208101909152600081526200002c81620000ce565b506004805460ff1916905562000044600033620000e7565b620000707f7804d923f43a17d325d77e781528e0793b2edd9890ab45fc64efd7b4b427744c33620000e7565b6200009c7f65d7a28e3265b37a6474929f336521b332c1681b933f6cb9f3376673440d862a33620000e7565b620000c87f9f2df0fed2c77648de5860a4cc508cd0818c85b8b8a1ab4ceeef8d981c8956a633620000e7565b6200026e565b8051620000e39060029060208401906200018b565b5050565b60008281526003602090815260408083206001600160a01b038516845290915290205460ff16620000e35760008281526003602090815260408083206001600160a01b03851684529091529020805460ff19166001179055620001473390565b6001600160a01b0316816001600160a01b0316837f2f8788117e7eff1d82e926ec794901d17c78024a50270940304540a733656f0d60405160405180910390a45050565b828054620001999062000231565b90600052602060002090601f016020900481019282620001bd576000855562000208565b82601f10620001d857805160ff191683800117855562000208565b8280016001018555821562000208579182015b8281111562000208578251825591602001919060010190620001eb565b50620002169291506200021a565b5090565b5b808211156200021657600081556001016200021b565b6002810460018216806200024657607f821691505b602082108114156200026857634e487b7160e01b600052602260045260246000fd5b50919050565b612e44806200027e6000396000f3fe608060405234801561001057600080fd5b50600436106101ef5760003560e01c8063626be5671161010f578063aa6ca808116100a2578063e63ab1e911610071578063e63ab1e91461046f578063e985e9c514610496578063f242432a146104d2578063f5298aca146104e5576101ef565b8063aa6ca80814610400578063bd85b03914610415578063d539139314610435578063d547741f1461045c576101ef565b80638456cb59116100de5780638456cb59146103ca57806391d14854146103d2578063a217fddf146103e5578063a22cb465146103ed576101ef565b8063626be567146103745780636b20c4541461037d578063731133e9146103905780637f345710146103a3576101ef565b80633227bbd3116101875780634e1273f4116101565780634e1273f4146103045780634f558e79146103245780634f64b2be146103465780635c975abb14610369576101ef565b80633227bbd3146102ce57806336568abe146102e15780633d0673d4146102f45780633f4ba83a146102fc576101ef565b80631f7fdffa116101c35780631f7fdffa14610272578063248a9ca3146102855780632eb2c2d6146102a85780632f2ff15d146102bb576101ef565b8062fdd58e146101f457806301ffc9a71461021a57806302fe53051461023d5780630e89341c14610252575b600080fd5b61020761020236600461245c565b6104f8565b6040519081526020015b60405180910390f35b61022d61022836600461260b565b61058f565b6040519015158152602001610211565b61025061024b366004612643565b6105a2565b005b6102656102603660046125d1565b6105db565b6040516102119190612934565b61025061028036600461238e565b61066f565b6102076102933660046125d1565b60009081526003602052604090206001015490565b6102506102b6366004612217565b6106ad565b6102506102c93660046125e9565b61073d565b6102506102dc36600461267d565b610768565b6102506102ef3660046125e9565b6108c1565b61020761093b565b610250610953565b610317610312366004612509565b610989565b60405161021191906128f3565b61022d6103323660046125d1565b600090815260056020526040902054151590565b6103596103543660046125d1565b610aea565b6040516102119493929190612b77565b60045460ff1661022d565b61020760065481565b61025061038b36600461231e565b610bb4565b61025061039e3660046124b7565b610bf7565b6102077f7804d923f43a17d325d77e781528e0793b2edd9890ab45fc64efd7b4b427744c81565b610250610c2e565b61022d6103e03660046125e9565b610c61565b610207600081565b6102506103fb366004612422565b610c8c565b610408610c97565b604051610211919061285f565b6102076104233660046125d1565b60009081526005602052604090205490565b6102077f9f2df0fed2c77648de5860a4cc508cd0818c85b8b8a1ab4ceeef8d981c8956a681565b61025061046a3660046125e9565b610df7565b6102077f65d7a28e3265b37a6474929f336521b332c1681b933f6cb9f3376673440d862a81565b61022d6104a43660046121e5565b6001600160a01b03918216600090815260016020908152604080832093909416825291909152205460ff1690565b6102506104e03660046122bc565b610e1d565b6102506104f3366004612485565b610e62565b60006001600160a01b0383166105695760405162461bcd60e51b815260206004820152602b60248201527f455243313135353a2062616c616e636520717565727920666f7220746865207a60448201526a65726f206164647265737360a81b60648201526084015b60405180910390fd5b506000908152602081815260408083206001600160a01b03949094168352929052205490565b600061059a82610ea5565b90505b919050565b7f7804d923f43a17d325d77e781528e0793b2edd9890ab45fc64efd7b4b427744c6105ce81335b610eca565b6105d782610f2e565b5050565b6060600280546105ea90612ca2565b80601f016020809104026020016040519081016040528092919081815260200182805461061690612ca2565b80156106635780601f1061063857610100808354040283529160200191610663565b820191906000526020600020905b81548152906001019060200180831161064657829003601f168201915b50505050509050919050565b7f9f2df0fed2c77648de5860a4cc508cd0818c85b8b8a1ab4ceeef8d981c8956a661069a81336105c9565b6106a685858585610f41565b5050505050565b6001600160a01b0385163314806106c957506106c985336104a4565b6107305760405162461bcd60e51b815260206004820152603260248201527f455243313135353a207472616e736665722063616c6c6572206973206e6f74206044820152711bdddb995c881b9bdc88185c1c1c9bdd995960721b6064820152608401610560565b6106a685858585856110b7565b60008281526003602052604090206001015461075981336105c9565b610763838361127d565b505050565b600061077481336105c9565b60068054908190600061078683612d09565b9190505550600760405180608001604052808381526020018681526020018560018111156107c457634e487b7160e01b600052602160045260246000fd5b60018111156107e357634e487b7160e01b600052602160045260246000fd5b8152600060209182018190528354600181810186559482529082902083516003909202019081558282015180519394919361082693928501929190910190612055565b50604082015160028201805460ff19166001838181111561085757634e487b7160e01b600052602160045260246000fd5b021790555060608201518160020160016101000a81548160ff02191690831515021790555050507f47aeeabee1f97d5759c55a2f58629b7a2cfe888eb070e2791bb325b5dc3dbda4818585336040516108b39493929190612bb0565b60405180910390a150505050565b6001600160a01b03811633146109315760405162461bcd60e51b815260206004820152602f60248201527f416363657373436f6e74726f6c3a2063616e206f6e6c792072656e6f756e636560448201526e103937b632b9903337b91039b2b63360891b6064820152608401610560565b6105d78282611303565b60075460009061094d90600190612c44565b90505b90565b7f65d7a28e3265b37a6474929f336521b332c1681b933f6cb9f3376673440d862a61097e81336105c9565b61098661136a565b50565b606081518351146109ee5760405162461bcd60e51b815260206004820152602960248201527f455243313135353a206163636f756e747320616e6420696473206c656e677468604482015268040dad2e6dac2e8c6d60bb1b6064820152608401610560565b600083516001600160401b03811115610a1757634e487b7160e01b600052604160045260246000fd5b604051908082528060200260200182016040528015610a40578160200160208202803683370190505b50905060005b8451811015610ae257610aa7858281518110610a7257634e487b7160e01b600052603260045260246000fd5b6020026020010151858381518110610a9a57634e487b7160e01b600052603260045260246000fd5b60200260200101516104f8565b828281518110610ac757634e487b7160e01b600052603260045260246000fd5b6020908102919091010152610adb81612d09565b9050610a46565b509392505050565b60078181548110610afa57600080fd5b60009182526020909120600390910201805460018201805491935090610b1f90612ca2565b80601f0160208091040260200160405190810160405280929190818152602001828054610b4b90612ca2565b8015610b985780601f10610b6d57610100808354040283529160200191610b98565b820191906000526020600020905b815481529060010190602001808311610b7b57829003601f168201915b5050506002909301549192505060ff8082169161010090041684565b6001600160a01b038316331480610bd05750610bd083336104a4565b610bec5760405162461bcd60e51b8152600401610560906129d3565b6107638383836113fd565b7f9f2df0fed2c77648de5860a4cc508cd0818c85b8b8a1ab4ceeef8d981c8956a6610c2281336105c9565b6106a6858585856115a7565b7f65d7a28e3265b37a6474929f336521b332c1681b933f6cb9f3376673440d862a610c5981336105c9565b61098661167d565b60009182526003602090815260408084206001600160a01b0393909316845291905290205460ff1690565b6105d73383836116f8565b60606007805480602002602001604051908101604052809291908181526020016000905b82821015610dee578382906000526020600020906003020160405180608001604052908160008201548152602001600182018054610cf890612ca2565b80601f0160208091040260200160405190810160405280929190818152602001828054610d2490612ca2565b8015610d715780601f10610d4657610100808354040283529160200191610d71565b820191906000526020600020905b815481529060010190602001808311610d5457829003601f168201915b5050509183525050600282015460209091019060ff166001811115610da657634e487b7160e01b600052602160045260246000fd5b6001811115610dc557634e487b7160e01b600052602160045260246000fd5b815260029190910154610100900460ff1615156020918201529082526001929092019101610cbb565b50505050905090565b600082815260036020526040902060010154610e1381336105c9565b6107638383611303565b6001600160a01b038516331480610e395750610e3985336104a4565b610e555760405162461bcd60e51b8152600401610560906129d3565b6106a685858585856117d9565b6001600160a01b038316331480610e7e5750610e7e83336104a4565b610e9a5760405162461bcd60e51b8152600401610560906129d3565b6107638383836118f6565b60006001600160e01b03198216637965db0b60e01b148061059a575061059a826119f7565b610ed48282610c61565b6105d757610eec816001600160a01b03166014611a47565b610ef7836020611a47565b604051602001610f08929190612747565b60408051601f198184030181529082905262461bcd60e51b825261056091600401612934565b80516105d7906002906020840190612055565b6001600160a01b038416610f675760405162461bcd60e51b815260040161056090612b36565b8151835114610f885760405162461bcd60e51b815260040161056090612aee565b33610f9881600087878787611c2f565b60005b845181101561104f57838181518110610fc457634e487b7160e01b600052603260045260246000fd5b6020026020010151600080878481518110610fef57634e487b7160e01b600052603260045260246000fd5b602002602001015181526020019081526020016000206000886001600160a01b03166001600160a01b0316815260200190815260200160002060008282546110379190612c0d565b9091555081905061104781612d09565b915050610f9b565b50846001600160a01b031660006001600160a01b0316826001600160a01b03167f4a39dc06d4c0dbc64b70af90fd698a233a518aa5d07e595d983b8c0526c8f7fb87876040516110a0929190612906565b60405180910390a46106a681600087878787611c83565b81518351146110d85760405162461bcd60e51b815260040161056090612aee565b6001600160a01b0384166110fe5760405162461bcd60e51b815260040161056090612a1c565b3361110d818787878787611c2f565b60005b845181101561120f57600085828151811061113b57634e487b7160e01b600052603260045260246000fd5b60200260200101519050600085838151811061116757634e487b7160e01b600052603260045260246000fd5b602090810291909101810151600084815280835260408082206001600160a01b038e1683529093529190912054909150818110156111b75760405162461bcd60e51b815260040161056090612aa4565b6000838152602081815260408083206001600160a01b038e8116855292528083208585039055908b168252812080548492906111f4908490612c0d565b925050819055505050508061120890612d09565b9050611110565b50846001600160a01b0316866001600160a01b0316826001600160a01b03167f4a39dc06d4c0dbc64b70af90fd698a233a518aa5d07e595d983b8c0526c8f7fb878760405161125f929190612906565b60405180910390a4611275818787878787611c83565b505050505050565b6112878282610c61565b6105d75760008281526003602090815260408083206001600160a01b03851684529091529020805460ff191660011790556112bf3390565b6001600160a01b0316816001600160a01b0316837f2f8788117e7eff1d82e926ec794901d17c78024a50270940304540a733656f0d60405160405180910390a45050565b61130d8282610c61565b156105d75760008281526003602090815260408083206001600160a01b0385168085529252808320805460ff1916905551339285917ff6391f5c32d9c69d2a47ea670b442974b53935d1edc7fd64eb21e047a839171b9190a45050565b60045460ff166113b35760405162461bcd60e51b815260206004820152601460248201527314185d5cd8589b194e881b9bdd081c185d5cd95960621b6044820152606401610560565b6004805460ff191690557f5db9ee0a495bf2e6ff9c91a7834c1ba4fdd244a5e8aa4e537bd38aeae4b073aa335b6040516001600160a01b03909116815260200160405180910390a1565b6001600160a01b0383166114235760405162461bcd60e51b815260040161056090612a61565b80518251146114445760405162461bcd60e51b815260040161056090612aee565b600033905061146781856000868660405180602001604052806000815250611c2f565b60005b835181101561154857600084828151811061149557634e487b7160e01b600052603260045260246000fd5b6020026020010151905060008483815181106114c157634e487b7160e01b600052603260045260246000fd5b602090810291909101810151600084815280835260408082206001600160a01b038c1683529093529190912054909150818110156115115760405162461bcd60e51b81526004016105609061298f565b6000928352602083815260408085206001600160a01b038b168652909152909220910390558061154081612d09565b91505061146a565b5060006001600160a01b0316846001600160a01b0316826001600160a01b03167f4a39dc06d4c0dbc64b70af90fd698a233a518aa5d07e595d983b8c0526c8f7fb8686604051611599929190612906565b60405180910390a450505050565b6001600160a01b0384166115cd5760405162461bcd60e51b815260040161056090612b36565b336115ed816000876115de88611dee565b6115e788611dee565b87611c2f565b6000848152602081815260408083206001600160a01b03891684529091528120805485929061161d908490612c0d565b909155505060408051858152602081018590526001600160a01b0380881692600092918516917fc3d58168c5ae7397731d063d5bbf3d657854427343f4c083240f7aacaa2d0f62910160405180910390a46106a681600087878787611e47565b60045460ff16156116c35760405162461bcd60e51b815260206004820152601060248201526f14185d5cd8589b194e881c185d5cd95960821b6044820152606401610560565b6004805460ff191660011790557f62e78cea01bee320cd4e420270b5ea74000d11b0c9f74754ebdbfc544b05a2586113e03390565b816001600160a01b0316836001600160a01b0316141561176c5760405162461bcd60e51b815260206004820152602960248201527f455243313135353a2073657474696e6720617070726f76616c20737461747573604482015268103337b91039b2b63360b91b6064820152608401610560565b6001600160a01b03838116600081815260016020908152604080832094871680845294825291829020805460ff191686151590811790915591519182527f17307eab39ab6107e8899845ad3d59bd9653f200f220920489ca2b5937696c31910160405180910390a3505050565b6001600160a01b0384166117ff5760405162461bcd60e51b815260040161056090612a1c565b3361180f8187876115de88611dee565b6000848152602081815260408083206001600160a01b038a168452909152902054838110156118505760405162461bcd60e51b815260040161056090612aa4565b6000858152602081815260408083206001600160a01b038b811685529252808320878503905590881682528120805486929061188d908490612c0d565b909155505060408051868152602081018690526001600160a01b03808916928a821692918616917fc3d58168c5ae7397731d063d5bbf3d657854427343f4c083240f7aacaa2d0f62910160405180910390a46118ed828888888888611e47565b50505050505050565b6001600160a01b03831661191c5760405162461bcd60e51b815260040161056090612a61565b3361194b8185600061192d87611dee565b61193687611dee565b60405180602001604052806000815250611c2f565b6000838152602081815260408083206001600160a01b03881684529091529020548281101561198c5760405162461bcd60e51b81526004016105609061298f565b6000848152602081815260408083206001600160a01b03898116808652918452828520888703905582518981529384018890529092908616917fc3d58168c5ae7397731d063d5bbf3d657854427343f4c083240f7aacaa2d0f62910160405180910390a45050505050565b60006001600160e01b03198216636cdb3d1360e11b1480611a2857506001600160e01b031982166303a24d0760e21b145b8061059a57506301ffc9a760e01b6001600160e01b031983161461059a565b60606000611a56836002612c25565b611a61906002612c0d565b6001600160401b03811115611a8657634e487b7160e01b600052604160045260246000fd5b6040519080825280601f01601f191660200182016040528015611ab0576020820181803683370190505b509050600360fc1b81600081518110611ad957634e487b7160e01b600052603260045260246000fd5b60200101906001600160f81b031916908160001a905350600f60fb1b81600181518110611b1657634e487b7160e01b600052603260045260246000fd5b60200101906001600160f81b031916908160001a9053506000611b3a846002612c25565b611b45906001612c0d565b90505b6001811115611bd9576f181899199a1a9b1b9c1cb0b131b232b360811b85600f1660108110611b8757634e487b7160e01b600052603260045260246000fd5b1a60f81b828281518110611bab57634e487b7160e01b600052603260045260246000fd5b60200101906001600160f81b031916908160001a90535060049490941c93611bd281612c8b565b9050611b48565b508315611c285760405162461bcd60e51b815260206004820181905260248201527f537472696e67733a20686578206c656e67746820696e73756666696369656e746044820152606401610560565b9392505050565b60045460ff1615611c755760405162461bcd60e51b815260206004820152601060248201526f14185d5cd8589b194e881c185d5cd95960821b6044820152606401610560565b611275868686868686611f11565b6001600160a01b0384163b156112755760405163bc197c8160e01b81526001600160a01b0385169063bc197c8190611cc790899089908890889088906004016127bc565b602060405180830381600087803b158015611ce157600080fd5b505af1925050508015611d11575060408051601f3d908101601f19168201909252611d0e91810190612627565b60015b611dbe57611d1d612d50565b806308c379a01415611d575750611d32612d67565b80611d3d5750611d59565b8060405162461bcd60e51b81526004016105609190612934565b505b60405162461bcd60e51b815260206004820152603460248201527f455243313135353a207472616e7366657220746f206e6f6e20455243313135356044820152732932b1b2b4bb32b91034b6b83632b6b2b73a32b960611b6064820152608401610560565b6001600160e01b0319811663bc197c8160e01b146118ed5760405162461bcd60e51b815260040161056090612947565b60408051600180825281830190925260609160009190602080830190803683370190505090508281600081518110611e3657634e487b7160e01b600052603260045260246000fd5b602090810291909101015292915050565b6001600160a01b0384163b156112755760405163f23a6e6160e01b81526001600160a01b0385169063f23a6e6190611e8b908990899088908890889060040161281a565b602060405180830381600087803b158015611ea557600080fd5b505af1925050508015611ed5575060408051601f3d908101601f19168201909252611ed291810190612627565b60015b611ee157611d1d612d50565b6001600160e01b0319811663f23a6e6160e01b146118ed5760405162461bcd60e51b815260040161056090612947565b6001600160a01b038516611fb45760005b8351811015611fb257828181518110611f4b57634e487b7160e01b600052603260045260246000fd5b602002602001015160056000868481518110611f7757634e487b7160e01b600052603260045260246000fd5b602002602001015181526020019081526020016000206000828254611f9c9190612c0d565b90915550611fab905081612d09565b9050611f22565b505b6001600160a01b0384166112755760005b83518110156118ed57828181518110611fee57634e487b7160e01b600052603260045260246000fd5b60200260200101516005600086848151811061201a57634e487b7160e01b600052603260045260246000fd5b60200260200101518152602001908152602001600020600082825461203f9190612c44565b9091555061204e905081612d09565b9050611fc5565b82805461206190612ca2565b90600052602060002090601f01602090048101928261208357600085556120c9565b82601f1061209c57805160ff19168380011785556120c9565b828001600101855582156120c9579182015b828111156120c95782518255916020019190600101906120ae565b506120d59291506120d9565b5090565b5b808211156120d557600081556001016120da565b80356001600160a01b038116811461059d57600080fd5b600082601f830112612115578081fd5b8135602061212282612bea565b60405161212f8282612cdd565b83815282810191508583018385028701840188101561214c578586fd5b855b8581101561216a5781358452928401929084019060010161214e565b5090979650505050505050565b600082601f830112612187578081fd5b81356001600160401b038111156121a0576121a0612d3a565b6040516121b7601f8301601f191660200182612cdd565b8181528460208386010111156121cb578283fd5b816020850160208301379081016020019190915292915050565b600080604083850312156121f7578182fd5b612200836120ee565b915061220e602084016120ee565b90509250929050565b600080600080600060a0868803121561222e578081fd5b612237866120ee565b9450612245602087016120ee565b935060408601356001600160401b0380821115612260578283fd5b61226c89838a01612105565b94506060880135915080821115612281578283fd5b61228d89838a01612105565b935060808801359150808211156122a2578283fd5b506122af88828901612177565b9150509295509295909350565b600080600080600060a086880312156122d3578081fd5b6122dc866120ee565b94506122ea602087016120ee565b9350604086013592506060860135915060808601356001600160401b03811115612312578182fd5b6122af88828901612177565b600080600060608486031215612332578283fd5b61233b846120ee565b925060208401356001600160401b0380821115612356578384fd5b61236287838801612105565b93506040860135915080821115612377578283fd5b5061238486828701612105565b9150509250925092565b600080600080608085870312156123a3578384fd5b6123ac856120ee565b935060208501356001600160401b03808211156123c7578485fd5b6123d388838901612105565b945060408701359150808211156123e8578384fd5b6123f488838901612105565b93506060870135915080821115612409578283fd5b5061241687828801612177565b91505092959194509250565b60008060408385031215612434578182fd5b61243d836120ee565b915060208301358015158114612451578182fd5b809150509250929050565b6000806040838503121561246e578182fd5b612477836120ee565b946020939093013593505050565b600080600060608486031215612499578081fd5b6124a2846120ee565b95602085013595506040909401359392505050565b600080600080608085870312156124cc578182fd5b6124d5856120ee565b9350602085013592506040850135915060608501356001600160401b038111156124fd578182fd5b61241687828801612177565b6000806040838503121561251b578182fd5b82356001600160401b0380821115612531578384fd5b818501915085601f830112612544578384fd5b8135602061255182612bea565b60405161255e8282612cdd565b8381528281019150858301838502870184018b101561257b578889fd5b8896505b848710156125a457612590816120ee565b83526001969096019591830191830161257f565b50965050860135925050808211156125ba578283fd5b506125c785828601612105565b9150509250929050565b6000602082840312156125e2578081fd5b5035919050565b600080604083850312156125fb578182fd5b8235915061220e602084016120ee565b60006020828403121561261c578081fd5b8135611c2881612df8565b600060208284031215612638578081fd5b8151611c2881612df8565b600060208284031215612654578081fd5b81356001600160401b03811115612669578182fd5b61267584828501612177565b949350505050565b6000806040838503121561268f578182fd5b82356001600160401b038111156126a4578283fd5b6126b085828601612177565b95602094909401359450505050565b6000815180845260208085019450808401835b838110156126ee578151875295820195908201906001016126d2565b509495945050505050565b60008151808452612711816020860160208601612c5b565b601f01601f19169290920160200192915050565b6002811061274357634e487b7160e01b600052602160045260246000fd5b9052565b60007f416363657373436f6e74726f6c3a206163636f756e74200000000000000000008252835161277f816017850160208801612c5b565b7001034b99036b4b9b9b4b733903937b6329607d1b60179184019182015283516127b0816028840160208801612c5b565b01602801949350505050565b6001600160a01b0386811682528516602082015260a0604082018190526000906127e8908301866126bf565b82810360608401526127fa81866126bf565b9050828103608084015261280e81856126f9565b98975050505050505050565b6001600160a01b03868116825285166020820152604081018490526060810183905260a060808201819052600090612854908301846126f9565b979650505050505050565b60208082528251828201819052600091906040908185019080840286018301878501865b838110156128e557603f19898403018552815160808151855288820151818a8701526128b1828701826126f9565b915050878201516128c489870182612725565b50606091820151151594909101939093529386019390860190600101612883565b509098975050505050505050565b600060208252611c2860208301846126bf565b60006040825261291960408301856126bf565b828103602084015261292b81856126bf565b95945050505050565b600060208252611c2860208301846126f9565b60208082526028908201527f455243313135353a204552433131353552656365697665722072656a656374656040820152676420746f6b656e7360c01b606082015260800190565b60208082526024908201527f455243313135353a206275726e20616d6f756e7420657863656564732062616c604082015263616e636560e01b606082015260800190565b60208082526029908201527f455243313135353a2063616c6c6572206973206e6f74206f776e6572206e6f7260408201526808185c1c1c9bdd995960ba1b606082015260800190565b60208082526025908201527f455243313135353a207472616e7366657220746f20746865207a65726f206164604082015264647265737360d81b606082015260800190565b60208082526023908201527f455243313135353a206275726e2066726f6d20746865207a65726f206164647260408201526265737360e81b606082015260800190565b6020808252602a908201527f455243313135353a20696e73756666696369656e742062616c616e636520666f60408201526939103a3930b739b332b960b11b606082015260800190565b60208082526028908201527f455243313135353a2069647320616e6420616d6f756e7473206c656e677468206040820152670dad2e6dac2e8c6d60c31b606082015260800190565b60208082526021908201527f455243313135353a206d696e7420746f20746865207a65726f206164647265736040820152607360f81b606082015260800190565b600085825260806020830152612b9060808301866126f9565b9050612b9f6040830185612725565b821515606083015295945050505050565b600085825260806020830152612bc960808301866126f9565b6040830194909452506001600160a01b039190911660609091015292915050565b60006001600160401b03821115612c0357612c03612d3a565b5060209081020190565b60008219821115612c2057612c20612d24565b500190565b6000816000190483118215151615612c3f57612c3f612d24565b500290565b600082821015612c5657612c56612d24565b500390565b60005b83811015612c76578181015183820152602001612c5e565b83811115612c85576000848401525b50505050565b600081612c9a57612c9a612d24565b506000190190565b600281046001821680612cb657607f821691505b60208210811415612cd757634e487b7160e01b600052602260045260246000fd5b50919050565b601f8201601f191681016001600160401b0381118282101715612d0257612d02612d3a565b6040525050565b6000600019821415612d1d57612d1d612d24565b5060010190565b634e487b7160e01b600052601160045260246000fd5b634e487b7160e01b600052604160045260246000fd5b600060033d111561095057600481823e5160e01c90565b600060443d1015612d7757610950565b6040516003193d81016004833e81513d6001600160401b038160248401118184111715612da8575050505050610950565b8285019150815181811115612dc257505050505050610950565b843d8701016020828501011115612dde57505050505050610950565b612ded60208286010187612cdd565b509094505050505090565b6001600160e01b03198116811461098657600080fdfea2646970667358221220851795d914e99bec39ec1c83ca4f3e99f43672af08ffbc47ef7301db2c19c3a064736f6c63430008020033",
  "immutableReferences": {},
  "source": "// SPDX-License-Identifier: MIT\r\npragma solidity >=0.4.22 <0.9.0;\r\n\r\nimport \"@openzeppelin/contracts/token/ERC1155/ERC1155.sol\";\r\nimport \"@openzeppelin/contracts/access/AccessControl.sol\";\r\nimport \"@openzeppelin/contracts/security/Pausable.sol\";\r\nimport \"@openzeppelin/contracts/token/ERC1155/extensions/ERC1155Burnable.sol\";\r\nimport \"@openzeppelin/contracts/token/ERC1155/extensions/ERC1155Supply.sol\";\r\n\r\ncontract Lab01Token is\r\n    ERC1155,\r\n    AccessControl,\r\n    Pausable,\r\n    ERC1155Burnable,\r\n    ERC1155Supply\r\n{\r\n    bytes32 public constant URI_SETTER_ROLE = keccak256(\"URI_SETTER_ROLE\");\r\n    bytes32 public constant PAUSER_ROLE = keccak256(\"PAUSER_ROLE\");\r\n    bytes32 public constant MINTER_ROLE = keccak256(\"MINTER_ROLE\");\r\n\r\n    enum TokenType {\r\n        FUNGIBLE,\r\n        NON_FUNGIBLE\r\n    }\r\n\r\n    struct Token {\r\n        uint256 id;\r\n        string name;\r\n        TokenType tokenType;\r\n        bool active;\r\n    }\r\n    uint256 public totalToken;\r\n    Token[] public tokens;\r\n\r\n    constructor() ERC1155(\"\") {\r\n        _grantRole(DEFAULT_ADMIN_ROLE, msg.sender);\r\n        _grantRole(URI_SETTER_ROLE, msg.sender);\r\n        _grantRole(PAUSER_ROLE, msg.sender);\r\n        _grantRole(MINTER_ROLE, msg.sender);\r\n    }\r\n\r\n    function addNewToken(string memory _name, uint256 _tokenType)\r\n        public\r\n        onlyRole(DEFAULT_ADMIN_ROLE)\r\n    {\r\n        uint256 id = totalToken;\r\n        totalToken++;\r\n        tokens.push(Token(id, _name, TokenType(_tokenType), false));\r\n        emit AddNewToken(id, _name, _tokenType, msg.sender);\r\n    }\r\n\r\n    function setURI(string memory newuri) public onlyRole(URI_SETTER_ROLE) {\r\n        _setURI(newuri);\r\n    }\r\n\r\n    function pause() public onlyRole(PAUSER_ROLE) {\r\n        _pause();\r\n    }\r\n\r\n    function unpause() public onlyRole(PAUSER_ROLE) {\r\n        _unpause();\r\n    }\r\n\r\n    function mint(\r\n        address account,\r\n        uint256 id,\r\n        uint256 amount,\r\n        bytes memory data\r\n    ) public onlyRole(MINTER_ROLE) {\r\n        _mint(account, id, amount, data);\r\n    }\r\n\r\n    function mintBatch(\r\n        address to,\r\n        uint256[] memory ids,\r\n        uint256[] memory amounts,\r\n        bytes memory data\r\n    ) public onlyRole(MINTER_ROLE) {\r\n        _mintBatch(to, ids, amounts, data);\r\n    }\r\n\r\n    function _beforeTokenTransfer(\r\n        address operator,\r\n        address from,\r\n        address to,\r\n        uint256[] memory ids,\r\n        uint256[] memory amounts,\r\n        bytes memory data\r\n    ) internal override(ERC1155, ERC1155Supply) whenNotPaused {\r\n        super._beforeTokenTransfer(operator, from, to, ids, amounts, data);\r\n    }\r\n\r\n    // The following functions are overrides required by Solidity.\r\n\r\n    function supportsInterface(bytes4 interfaceId)\r\n        public\r\n        view\r\n        override(ERC1155, AccessControl)\r\n        returns (bool)\r\n    {\r\n        return super.supportsInterface(interfaceId);\r\n    }\r\n\r\n    function getTokens()\r\n        public\r\n        view\r\n        returns (Token[] memory)\r\n    {\r\n        return tokens;\r\n    }\r\n    function getTotalToken()\r\n        public\r\n        view\r\n        returns (uint256)\r\n    {\r\n        return (tokens.length - 1);\r\n    }\r\n    event AddNewToken(\r\n        uint256 id,\r\n        string name,\r\n        uint256 tokenType,\r\n        address creator\r\n    );\r\n}\r\n",
  "sourcePath": "D:\\projects\\IceContract\\contracts\\Lab01Token.sol",
  "compiler": {
    "name": "solc",
    "version": "0.8.2+commit.661d1103.Emscripten.clang"
  },
  "schemaVersion": "3.4.4",
  "updatedAt": "2022-03-04T07:13:54.859Z",
  "networkType": "ethereum",
  "devdoc": {
    "kind": "dev",
    "methods": {
      "balanceOf(address,uint256)": {
        "details": "See {IERC1155-balanceOf}. Requirements: - `account` cannot be the zero address."
      },
      "balanceOfBatch(address[],uint256[])": {
        "details": "See {IERC1155-balanceOfBatch}. Requirements: - `accounts` and `ids` must have the same length."
      },
      "exists(uint256)": {
        "details": "Indicates whether any token exist with a given id, or not."
      },
      "getRoleAdmin(bytes32)": {
        "details": "Returns the admin role that controls `role`. See {grantRole} and {revokeRole}. To change a role's admin, use {_setRoleAdmin}."
      },
      "grantRole(bytes32,address)": {
        "details": "Grants `role` to `account`. If `account` had not been already granted `role`, emits a {RoleGranted} event. Requirements: - the caller must have ``role``'s admin role."
      },
      "hasRole(bytes32,address)": {
        "details": "Returns `true` if `account` has been granted `role`."
      },
      "isApprovedForAll(address,address)": {
        "details": "See {IERC1155-isApprovedForAll}."
      },
      "paused()": {
        "details": "Returns true if the contract is paused, and false otherwise."
      },
      "renounceRole(bytes32,address)": {
        "details": "Revokes `role` from the calling account. Roles are often managed via {grantRole} and {revokeRole}: this function's purpose is to provide a mechanism for accounts to lose their privileges if they are compromised (such as when a trusted device is misplaced). If the calling account had been revoked `role`, emits a {RoleRevoked} event. Requirements: - the caller must be `account`."
      },
      "revokeRole(bytes32,address)": {
        "details": "Revokes `role` from `account`. If `account` had been granted `role`, emits a {RoleRevoked} event. Requirements: - the caller must have ``role``'s admin role."
      },
      "safeBatchTransferFrom(address,address,uint256[],uint256[],bytes)": {
        "details": "See {IERC1155-safeBatchTransferFrom}."
      },
      "safeTransferFrom(address,address,uint256,uint256,bytes)": {
        "details": "See {IERC1155-safeTransferFrom}."
      },
      "setApprovalForAll(address,bool)": {
        "details": "See {IERC1155-setApprovalForAll}."
      },
      "totalSupply(uint256)": {
        "details": "Total amount of tokens in with a given id."
      },
      "uri(uint256)": {
        "details": "See {IERC1155MetadataURI-uri}. This implementation returns the same URI for *all* token types. It relies on the token type ID substitution mechanism https://eips.ethereum.org/EIPS/eip-1155#metadata[defined in the EIP]. Clients calling this function must replace the `\\{id\\}` substring with the actual token type ID."
      }
    },
    "version": 1
  },
  "userdoc": {
    "kind": "user",
    "methods": {},
    "version": 1
  }
}